{
  "_format": "hh-sol-artifact-1",
  "contractName": "DappCampWarriors",
  "sourceName": "contracts/DappCampWarriors.sol",
  "abi": [
    {
      "inputs": [],
      "stateMutability": "nonpayable",
      "type": "constructor"
    },
    {
      "anonymous": false,
      "inputs": [
        {
          "indexed": true,
          "internalType": "address",
          "name": "owner",
          "type": "address"
        },
        {
          "indexed": true,
          "internalType": "address",
          "name": "approved",
          "type": "address"
        },
        {
          "indexed": true,
          "internalType": "uint256",
          "name": "tokenId",
          "type": "uint256"
        }
      ],
      "name": "Approval",
      "type": "event"
    },
    {
      "anonymous": false,
      "inputs": [
        {
          "indexed": true,
          "internalType": "address",
          "name": "owner",
          "type": "address"
        },
        {
          "indexed": true,
          "internalType": "address",
          "name": "operator",
          "type": "address"
        },
        {
          "indexed": false,
          "internalType": "bool",
          "name": "approved",
          "type": "bool"
        }
      ],
      "name": "ApprovalForAll",
      "type": "event"
    },
    {
      "anonymous": false,
      "inputs": [
        {
          "indexed": true,
          "internalType": "address",
          "name": "previousOwner",
          "type": "address"
        },
        {
          "indexed": true,
          "internalType": "address",
          "name": "newOwner",
          "type": "address"
        }
      ],
      "name": "OwnershipTransferred",
      "type": "event"
    },
    {
      "anonymous": false,
      "inputs": [
        {
          "indexed": true,
          "internalType": "address",
          "name": "from",
          "type": "address"
        },
        {
          "indexed": true,
          "internalType": "address",
          "name": "to",
          "type": "address"
        },
        {
          "indexed": true,
          "internalType": "uint256",
          "name": "tokenId",
          "type": "uint256"
        }
      ],
      "name": "Transfer",
      "type": "event"
    },
    {
      "inputs": [],
      "name": "_tokenIds",
      "outputs": [
        {
          "internalType": "uint256",
          "name": "_value",
          "type": "uint256"
        }
      ],
      "stateMutability": "view",
      "type": "function"
    },
    {
      "inputs": [
        {
          "internalType": "address",
          "name": "to",
          "type": "address"
        },
        {
          "internalType": "uint256",
          "name": "tokenId",
          "type": "uint256"
        }
      ],
      "name": "approve",
      "outputs": [],
      "stateMutability": "nonpayable",
      "type": "function"
    },
    {
      "inputs": [
        {
          "internalType": "address",
          "name": "owner",
          "type": "address"
        }
      ],
      "name": "balanceOf",
      "outputs": [
        {
          "internalType": "uint256",
          "name": "",
          "type": "uint256"
        }
      ],
      "stateMutability": "view",
      "type": "function"
    },
    {
      "inputs": [],
      "name": "baseURI",
      "outputs": [
        {
          "internalType": "string",
          "name": "",
          "type": "string"
        }
      ],
      "stateMutability": "view",
      "type": "function"
    },
    {
      "inputs": [
        {
          "internalType": "uint256",
          "name": "tokenId",
          "type": "uint256"
        }
      ],
      "name": "getApproved",
      "outputs": [
        {
          "internalType": "address",
          "name": "",
          "type": "address"
        }
      ],
      "stateMutability": "view",
      "type": "function"
    },
    {
      "inputs": [
        {
          "internalType": "address",
          "name": "owner",
          "type": "address"
        },
        {
          "internalType": "address",
          "name": "operator",
          "type": "address"
        }
      ],
      "name": "isApprovedForAll",
      "outputs": [
        {
          "internalType": "bool",
          "name": "",
          "type": "bool"
        }
      ],
      "stateMutability": "view",
      "type": "function"
    },
    {
      "inputs": [
        {
          "internalType": "address",
          "name": "to",
          "type": "address"
        }
      ],
      "name": "mint",
      "outputs": [
        {
          "internalType": "uint256",
          "name": "",
          "type": "uint256"
        }
      ],
      "stateMutability": "nonpayable",
      "type": "function"
    },
    {
      "inputs": [],
      "name": "name",
      "outputs": [
        {
          "internalType": "string",
          "name": "",
          "type": "string"
        }
      ],
      "stateMutability": "view",
      "type": "function"
    },
    {
      "inputs": [],
      "name": "owner",
      "outputs": [
        {
          "internalType": "address",
          "name": "",
          "type": "address"
        }
      ],
      "stateMutability": "view",
      "type": "function"
    },
    {
      "inputs": [
        {
          "internalType": "uint256",
          "name": "tokenId",
          "type": "uint256"
        }
      ],
      "name": "ownerOf",
      "outputs": [
        {
          "internalType": "address",
          "name": "",
          "type": "address"
        }
      ],
      "stateMutability": "view",
      "type": "function"
    },
    {
      "inputs": [],
      "name": "renounceOwnership",
      "outputs": [],
      "stateMutability": "nonpayable",
      "type": "function"
    },
    {
      "inputs": [
        {
          "internalType": "address",
          "name": "from",
          "type": "address"
        },
        {
          "internalType": "address",
          "name": "to",
          "type": "address"
        },
        {
          "internalType": "uint256",
          "name": "tokenId",
          "type": "uint256"
        }
      ],
      "name": "safeTransferFrom",
      "outputs": [],
      "stateMutability": "nonpayable",
      "type": "function"
    },
    {
      "inputs": [
        {
          "internalType": "address",
          "name": "from",
          "type": "address"
        },
        {
          "internalType": "address",
          "name": "to",
          "type": "address"
        },
        {
          "internalType": "uint256",
          "name": "tokenId",
          "type": "uint256"
        },
        {
          "internalType": "bytes",
          "name": "_data",
          "type": "bytes"
        }
      ],
      "name": "safeTransferFrom",
      "outputs": [],
      "stateMutability": "nonpayable",
      "type": "function"
    },
    {
      "inputs": [
        {
          "internalType": "address",
          "name": "operator",
          "type": "address"
        },
        {
          "internalType": "bool",
          "name": "approved",
          "type": "bool"
        }
      ],
      "name": "setApprovalForAll",
      "outputs": [],
      "stateMutability": "nonpayable",
      "type": "function"
    },
    {
      "inputs": [
        {
          "internalType": "string",
          "name": "_baseURIParam",
          "type": "string"
        }
      ],
      "name": "setBaseURI",
      "outputs": [],
      "stateMutability": "nonpayable",
      "type": "function"
    },
    {
      "inputs": [
        {
          "internalType": "bytes4",
          "name": "interfaceId",
          "type": "bytes4"
        }
      ],
      "name": "supportsInterface",
      "outputs": [
        {
          "internalType": "bool",
          "name": "",
          "type": "bool"
        }
      ],
      "stateMutability": "view",
      "type": "function"
    },
    {
      "inputs": [],
      "name": "symbol",
      "outputs": [
        {
          "internalType": "string",
          "name": "",
          "type": "string"
        }
      ],
      "stateMutability": "view",
      "type": "function"
    },
    {
      "inputs": [
        {
          "internalType": "uint256",
          "name": "tokenId",
          "type": "uint256"
        }
      ],
      "name": "tokenURI",
      "outputs": [
        {
          "internalType": "string",
          "name": "",
          "type": "string"
        }
      ],
      "stateMutability": "view",
      "type": "function"
    },
    {
      "inputs": [
        {
          "internalType": "address",
          "name": "from",
          "type": "address"
        },
        {
          "internalType": "address",
          "name": "to",
          "type": "address"
        },
        {
          "internalType": "uint256",
          "name": "tokenId",
          "type": "uint256"
        }
      ],
      "name": "transferFrom",
      "outputs": [],
      "stateMutability": "nonpayable",
      "type": "function"
    },
    {
      "inputs": [
        {
          "internalType": "address",
          "name": "newOwner",
          "type": "address"
        }
      ],
      "name": "transferOwnership",
      "outputs": [],
      "stateMutability": "nonpayable",
      "type": "function"
    }
  ],
  "bytecode": "0x60806040523480156200001157600080fd5b506040518060400160405280601081526020017f4461707043616d7057617272696f7273000000000000000000000000000000008152506040518060400160405280600481526020017f4457415200000000000000000000000000000000000000000000000000000000815250816000908051906020019062000096929190620007e9565b508060019080519060200190620000af929190620007e9565b505050620000d2620000c66200010e60201b60201c565b6200011660201b60201c565b60005b600a8110156200010757620000f033620001dc60201b60201c565b508080620000fe9062000c17565b915050620000d5565b5062000db8565b600033905090565b6000600660009054906101000a900473ffffffffffffffffffffffffffffffffffffffff16905081600660006101000a81548173ffffffffffffffffffffffffffffffffffffffff021916908373ffffffffffffffffffffffffffffffffffffffff1602179055508173ffffffffffffffffffffffffffffffffffffffff168173ffffffffffffffffffffffffffffffffffffffff167f8be0079c531659141344cd1fd0a4f28419497f9722a3daafe3b4186f6b6457e060405160405180910390a35050565b6000620001ee6200010e60201b60201c565b73ffffffffffffffffffffffffffffffffffffffff1662000214620002ba60201b60201c565b73ffffffffffffffffffffffffffffffffffffffff16146200026d576040517f08c379a0000000000000000000000000000000000000000000000000000000008152600401620002649062000a95565b60405180910390fd5b6000620002866007620002e460201b62000ea81760201c565b90506200029a8382620002f260201b60201c565b620002b160076200031860201b62000eb61760201c565b80915050919050565b6000600660009054906101000a900473ffffffffffffffffffffffffffffffffffffffff16905090565b600081600001549050919050565b620003148282604051806020016040528060008152506200032e60201b60201c565b5050565b6001816000016000828254019250508190555050565b6200034083836200039c60201b60201c565b6200035560008484846200059660201b60201c565b62000397576040517f08c379a00000000000000000000000000000000000000000000000000000000081526004016200038e9062000a2f565b60405180910390fd5b505050565b600073ffffffffffffffffffffffffffffffffffffffff168273ffffffffffffffffffffffffffffffffffffffff1614156200040f576040517f08c379a0000000000000000000000000000000000000000000000000000000008152600401620004069062000a73565b60405180910390fd5b62000420816200075060201b60201c565b1562000463576040517f08c379a00000000000000000000000000000000000000000000000000000000081526004016200045a9062000a51565b60405180910390fd5b6200047760008383620007bc60201b60201c565b6001600360008473ffffffffffffffffffffffffffffffffffffffff1673ffffffffffffffffffffffffffffffffffffffff1681526020019081526020016000206000828254620004c9919062000ae4565b92505081905550816002600083815260200190815260200160002060006101000a81548173ffffffffffffffffffffffffffffffffffffffff021916908373ffffffffffffffffffffffffffffffffffffffff160217905550808273ffffffffffffffffffffffffffffffffffffffff16600073ffffffffffffffffffffffffffffffffffffffff167fddf252ad1be2c89b69c2b068fc378daa952ba7f163c4a11628f55a4df523b3ef60405160405180910390a46200059260008383620007c160201b60201c565b5050565b6000620005c48473ffffffffffffffffffffffffffffffffffffffff16620007c660201b62000ecc1760201c565b1562000743578373ffffffffffffffffffffffffffffffffffffffff1663150b7a02620005f66200010e60201b60201c565b8786866040518563ffffffff1660e01b81526004016200061a9493929190620009db565b602060405180830381600087803b1580156200063557600080fd5b505af19250505080156200066957506040513d601f19601f82011682018060405250810190620006669190620008b0565b60015b620006f2573d80600081146200069c576040519150601f19603f3d011682016040523d82523d6000602084013e620006a1565b606091505b50600081511415620006ea576040517f08c379a0000000000000000000000000000000000000000000000000000000008152600401620006e19062000a2f565b60405180910390fd5b805181602001fd5b63150b7a0260e01b7bffffffffffffffffffffffffffffffffffffffffffffffffffffffff1916817bffffffffffffffffffffffffffffffffffffffffffffffffffffffff19161491505062000748565b600190505b949350505050565b60008073ffffffffffffffffffffffffffffffffffffffff166002600084815260200190815260200160002060009054906101000a900473ffffffffffffffffffffffffffffffffffffffff1673ffffffffffffffffffffffffffffffffffffffff1614159050919050565b505050565b505050565b6000808273ffffffffffffffffffffffffffffffffffffffff163b119050919050565b828054620007f79062000be1565b90600052602060002090601f0160209004810192826200081b576000855562000867565b82601f106200083657805160ff191683800117855562000867565b8280016001018555821562000867579182015b828111156200086657825182559160200191906001019062000849565b5b5090506200087691906200087a565b5090565b5b80821115620008955760008160009055506001016200087b565b5090565b600081519050620008aa8162000d9e565b92915050565b600060208284031215620008c357600080fd5b6000620008d38482850162000899565b91505092915050565b620008e78162000b41565b82525050565b6000620008fa8262000ab7565b62000906818562000ac2565b93506200091881856020860162000bab565b620009238162000cc3565b840191505092915050565b60006200093d60328362000ad3565b91506200094a8262000cd4565b604082019050919050565b600062000964601c8362000ad3565b9150620009718262000d23565b602082019050919050565b60006200098b60208362000ad3565b9150620009988262000d4c565b602082019050919050565b6000620009b260208362000ad3565b9150620009bf8262000d75565b602082019050919050565b620009d58162000ba1565b82525050565b6000608082019050620009f26000830187620008dc565b62000a016020830186620008dc565b62000a106040830185620009ca565b818103606083015262000a248184620008ed565b905095945050505050565b6000602082019050818103600083015262000a4a816200092e565b9050919050565b6000602082019050818103600083015262000a6c8162000955565b9050919050565b6000602082019050818103600083015262000a8e816200097c565b9050919050565b6000602082019050818103600083015262000ab081620009a3565b9050919050565b600081519050919050565b600082825260208201905092915050565b600082825260208201905092915050565b600062000af18262000ba1565b915062000afe8362000ba1565b9250827fffffffffffffffffffffffffffffffffffffffffffffffffffffffffffffffff0382111562000b365762000b3562000c65565b5b828201905092915050565b600062000b4e8262000b81565b9050919050565b60007fffffffff0000000000000000000000000000000000000000000000000000000082169050919050565b600073ffffffffffffffffffffffffffffffffffffffff82169050919050565b6000819050919050565b60005b8381101562000bcb57808201518184015260208101905062000bae565b8381111562000bdb576000848401525b50505050565b6000600282049050600182168062000bfa57607f821691505b6020821081141562000c115762000c1062000c94565b5b50919050565b600062000c248262000ba1565b91507fffffffffffffffffffffffffffffffffffffffffffffffffffffffffffffffff82141562000c5a5762000c5962000c65565b5b600182019050919050565b7f4e487b7100000000000000000000000000000000000000000000000000000000600052601160045260246000fd5b7f4e487b7100000000000000000000000000000000000000000000000000000000600052602260045260246000fd5b6000601f19601f8301169050919050565b7f4552433732313a207472616e7366657220746f206e6f6e20455243373231526560008201527f63656976657220696d706c656d656e7465720000000000000000000000000000602082015250565b7f4552433732313a20746f6b656e20616c7265616479206d696e74656400000000600082015250565b7f4552433732313a206d696e7420746f20746865207a65726f2061646472657373600082015250565b7f4f776e61626c653a2063616c6c6572206973206e6f7420746865206f776e6572600082015250565b62000da98162000b55565b811462000db557600080fd5b50565b612f7e8062000dc86000396000f3fe608060405234801561001057600080fd5b506004361061012c5760003560e01c806370a08231116100ad578063aa46a40011610071578063aa46a4001461032f578063b88d4fde1461034d578063c87b56dd14610369578063e985e9c514610399578063f2fde38b146103c95761012c565b806370a082311461029d578063715018a6146102cd5780638da5cb5b146102d757806395d89b41146102f5578063a22cb465146103135761012c565b806342842e0e116100f457806342842e0e146101e757806355f804b3146102035780636352211e1461021f5780636a6278421461024f5780636c0360eb1461027f5761012c565b806301ffc9a71461013157806306fdde0314610161578063081812fc1461017f578063095ea7b3146101af57806323b872dd146101cb575b600080fd5b61014b60048036038101906101469190612010565b6103e5565b6040516101589190612457565b60405180910390f35b6101696104c7565b6040516101769190612472565b60405180910390f35b610199600480360381019061019491906120a3565b610559565b6040516101a691906123f0565b60405180910390f35b6101c960048036038101906101c49190611fd4565b6105de565b005b6101e560048036038101906101e09190611ece565b6106f6565b005b61020160048036038101906101fc9190611ece565b610756565b005b61021d60048036038101906102189190612062565b610776565b005b610239600480360381019061023491906120a3565b61080c565b60405161024691906123f0565b60405180910390f35b61026960048036038101906102649190611e69565b6108be565b6040516102769190612694565b60405180910390f35b610287610967565b6040516102949190612472565b60405180910390f35b6102b760048036038101906102b29190611e69565b6109f5565b6040516102c49190612694565b60405180910390f35b6102d5610aad565b005b6102df610b35565b6040516102ec91906123f0565b60405180910390f35b6102fd610b5f565b60405161030a9190612472565b60405180910390f35b61032d60048036038101906103289190611f98565b610bf1565b005b610337610c07565b6040516103449190612694565b60405180910390f35b61036760048036038101906103629190611f1d565b610c13565b005b610383600480360381019061037e91906120a3565b610c75565b6040516103909190612472565b60405180910390f35b6103b360048036038101906103ae9190611e92565b610d1c565b6040516103c09190612457565b60405180910390f35b6103e360048036038101906103de9190611e69565b610db0565b005b60007f80ac58cd000000000000000000000000000000000000000000000000000000007bffffffffffffffffffffffffffffffffffffffffffffffffffffffff1916827bffffffffffffffffffffffffffffffffffffffffffffffffffffffff191614806104b057507f5b5e139f000000000000000000000000000000000000000000000000000000007bffffffffffffffffffffffffffffffffffffffffffffffffffffffff1916827bffffffffffffffffffffffffffffffffffffffffffffffffffffffff1916145b806104c057506104bf82610eef565b5b9050919050565b6060600080546104d6906128ea565b80601f0160208091040260200160405190810160405280929190818152602001828054610502906128ea565b801561054f5780601f106105245761010080835404028352916020019161054f565b820191906000526020600020905b81548152906001019060200180831161053257829003601f168201915b5050505050905090565b600061056482610f59565b6105a3576040517f08c379a000000000000000000000000000000000000000000000000000000000815260040161059a906125f4565b60405180910390fd5b6004600083815260200190815260200160002060009054906101000a900473ffffffffffffffffffffffffffffffffffffffff169050919050565b60006105e98261080c565b90508073ffffffffffffffffffffffffffffffffffffffff168373ffffffffffffffffffffffffffffffffffffffff16141561065a576040517f08c379a000000000000000000000000000000000000000000000000000000000815260040161065190612654565b60405180910390fd5b8073ffffffffffffffffffffffffffffffffffffffff16610679610fc5565b73ffffffffffffffffffffffffffffffffffffffff1614806106a857506106a7816106a2610fc5565b610d1c565b5b6106e7576040517f08c379a00000000000000000000000000000000000000000000000000000000081526004016106de90612574565b60405180910390fd5b6106f18383610fcd565b505050565b610707610701610fc5565b82611086565b610746576040517f08c379a000000000000000000000000000000000000000000000000000000000815260040161073d90612674565b60405180910390fd5b610751838383611164565b505050565b61077183838360405180602001604052806000815250610c13565b505050565b61077e610fc5565b73ffffffffffffffffffffffffffffffffffffffff1661079c610b35565b73ffffffffffffffffffffffffffffffffffffffff16146107f2576040517f08c379a00000000000000000000000000000000000000000000000000000000081526004016107e990612614565b60405180910390fd5b8060089080519060200190610808929190611c8d565b5050565b6000806002600084815260200190815260200160002060009054906101000a900473ffffffffffffffffffffffffffffffffffffffff169050600073ffffffffffffffffffffffffffffffffffffffff168173ffffffffffffffffffffffffffffffffffffffff1614156108b5576040517f08c379a00000000000000000000000000000000000000000000000000000000081526004016108ac906125b4565b60405180910390fd5b80915050919050565b60006108c8610fc5565b73ffffffffffffffffffffffffffffffffffffffff166108e6610b35565b73ffffffffffffffffffffffffffffffffffffffff161461093c576040517f08c379a000000000000000000000000000000000000000000000000000000000815260040161093390612614565b60405180910390fd5b60006109486007610ea8565b905061095483826113cb565b61095e6007610eb6565b80915050919050565b60088054610974906128ea565b80601f01602080910402602001604051908101604052809291908181526020018280546109a0906128ea565b80156109ed5780601f106109c2576101008083540402835291602001916109ed565b820191906000526020600020905b8154815290600101906020018083116109d057829003601f168201915b505050505081565b60008073ffffffffffffffffffffffffffffffffffffffff168273ffffffffffffffffffffffffffffffffffffffff161415610a66576040517f08c379a0000000000000000000000000000000000000000000000000000000008152600401610a5d90612594565b60405180910390fd5b600360008373ffffffffffffffffffffffffffffffffffffffff1673ffffffffffffffffffffffffffffffffffffffff168152602001908152602001600020549050919050565b610ab5610fc5565b73ffffffffffffffffffffffffffffffffffffffff16610ad3610b35565b73ffffffffffffffffffffffffffffffffffffffff1614610b29576040517f08c379a0000000000000000000000000000000000000000000000000000000008152600401610b2090612614565b60405180910390fd5b610b3360006113e9565b565b6000600660009054906101000a900473ffffffffffffffffffffffffffffffffffffffff16905090565b606060018054610b6e906128ea565b80601f0160208091040260200160405190810160405280929190818152602001828054610b9a906128ea565b8015610be75780601f10610bbc57610100808354040283529160200191610be7565b820191906000526020600020905b815481529060010190602001808311610bca57829003601f168201915b5050505050905090565b610c03610bfc610fc5565b83836114af565b5050565b60078060000154905081565b610c24610c1e610fc5565b83611086565b610c63576040517f08c379a0000000000000000000000000000000000000000000000000000000008152600401610c5a90612674565b60405180910390fd5b610c6f8484848461161c565b50505050565b6060610c8082610f59565b610cbf576040517f08c379a0000000000000000000000000000000000000000000000000000000008152600401610cb690612634565b60405180910390fd5b6000610cc9611678565b90506000815111610ce95760405180602001604052806000815250610d14565b80610cf38461170a565b604051602001610d049291906123cc565b6040516020818303038152906040525b915050919050565b6000600560008473ffffffffffffffffffffffffffffffffffffffff1673ffffffffffffffffffffffffffffffffffffffff16815260200190815260200160002060008373ffffffffffffffffffffffffffffffffffffffff1673ffffffffffffffffffffffffffffffffffffffff16815260200190815260200160002060009054906101000a900460ff16905092915050565b610db8610fc5565b73ffffffffffffffffffffffffffffffffffffffff16610dd6610b35565b73ffffffffffffffffffffffffffffffffffffffff1614610e2c576040517f08c379a0000000000000000000000000000000000000000000000000000000008152600401610e2390612614565b60405180910390fd5b600073ffffffffffffffffffffffffffffffffffffffff168173ffffffffffffffffffffffffffffffffffffffff161415610e9c576040517f08c379a0000000000000000000000000000000000000000000000000000000008152600401610e93906124b4565b60405180910390fd5b610ea5816113e9565b50565b600081600001549050919050565b6001816000016000828254019250508190555050565b6000808273ffffffffffffffffffffffffffffffffffffffff163b119050919050565b60007f01ffc9a7000000000000000000000000000000000000000000000000000000007bffffffffffffffffffffffffffffffffffffffffffffffffffffffff1916827bffffffffffffffffffffffffffffffffffffffffffffffffffffffff1916149050919050565b60008073ffffffffffffffffffffffffffffffffffffffff166002600084815260200190815260200160002060009054906101000a900473ffffffffffffffffffffffffffffffffffffffff1673ffffffffffffffffffffffffffffffffffffffff1614159050919050565b600033905090565b816004600083815260200190815260200160002060006101000a81548173ffffffffffffffffffffffffffffffffffffffff021916908373ffffffffffffffffffffffffffffffffffffffff160217905550808273ffffffffffffffffffffffffffffffffffffffff166110408361080c565b73ffffffffffffffffffffffffffffffffffffffff167f8c5be1e5ebec7d5bd14f71427d1e84f3dd0314c0f7b2291e5b200ac8c7c3b92560405160405180910390a45050565b600061109182610f59565b6110d0576040517f08c379a00000000000000000000000000000000000000000000000000000000081526004016110c790612554565b60405180910390fd5b60006110db8361080c565b90508073ffffffffffffffffffffffffffffffffffffffff168473ffffffffffffffffffffffffffffffffffffffff16148061114a57508373ffffffffffffffffffffffffffffffffffffffff1661113284610559565b73ffffffffffffffffffffffffffffffffffffffff16145b8061115b575061115a8185610d1c565b5b91505092915050565b8273ffffffffffffffffffffffffffffffffffffffff166111848261080c565b73ffffffffffffffffffffffffffffffffffffffff16146111da576040517f08c379a00000000000000000000000000000000000000000000000000000000081526004016111d1906124d4565b60405180910390fd5b600073ffffffffffffffffffffffffffffffffffffffff168273ffffffffffffffffffffffffffffffffffffffff16141561124a576040517f08c379a000000000000000000000000000000000000000000000000000000000815260040161124190612514565b60405180910390fd5b6112558383836118b7565b611260600082610fcd565b6001600360008573ffffffffffffffffffffffffffffffffffffffff1673ffffffffffffffffffffffffffffffffffffffff16815260200190815260200160002060008282546112b09190612800565b925050819055506001600360008473ffffffffffffffffffffffffffffffffffffffff1673ffffffffffffffffffffffffffffffffffffffff16815260200190815260200160002060008282546113079190612779565b92505081905550816002600083815260200190815260200160002060006101000a81548173ffffffffffffffffffffffffffffffffffffffff021916908373ffffffffffffffffffffffffffffffffffffffff160217905550808273ffffffffffffffffffffffffffffffffffffffff168473ffffffffffffffffffffffffffffffffffffffff167fddf252ad1be2c89b69c2b068fc378daa952ba7f163c4a11628f55a4df523b3ef60405160405180910390a46113c68383836118bc565b505050565b6113e58282604051806020016040528060008152506118c1565b5050565b6000600660009054906101000a900473ffffffffffffffffffffffffffffffffffffffff16905081600660006101000a81548173ffffffffffffffffffffffffffffffffffffffff021916908373ffffffffffffffffffffffffffffffffffffffff1602179055508173ffffffffffffffffffffffffffffffffffffffff168173ffffffffffffffffffffffffffffffffffffffff167f8be0079c531659141344cd1fd0a4f28419497f9722a3daafe3b4186f6b6457e060405160405180910390a35050565b8173ffffffffffffffffffffffffffffffffffffffff168373ffffffffffffffffffffffffffffffffffffffff16141561151e576040517f08c379a000000000000000000000000000000000000000000000000000000000815260040161151590612534565b60405180910390fd5b80600560008573ffffffffffffffffffffffffffffffffffffffff1673ffffffffffffffffffffffffffffffffffffffff16815260200190815260200160002060008473ffffffffffffffffffffffffffffffffffffffff1673ffffffffffffffffffffffffffffffffffffffff16815260200190815260200160002060006101000a81548160ff0219169083151502179055508173ffffffffffffffffffffffffffffffffffffffff168373ffffffffffffffffffffffffffffffffffffffff167f17307eab39ab6107e8899845ad3d59bd9653f200f220920489ca2b5937696c318360405161160f9190612457565b60405180910390a3505050565b611627848484611164565b6116338484848461191c565b611672576040517f08c379a000000000000000000000000000000000000000000000000000000000815260040161166990612494565b60405180910390fd5b50505050565b606060088054611687906128ea565b80601f01602080910402602001604051908101604052809291908181526020018280546116b3906128ea565b80156117005780601f106116d557610100808354040283529160200191611700565b820191906000526020600020905b8154815290600101906020018083116116e357829003601f168201915b5050505050905090565b60606000821415611752576040518060400160405280600181526020017f300000000000000000000000000000000000000000000000000000000000000081525090506118b2565b600082905060005b6000821461178457808061176d9061294d565b915050600a8261177d91906127cf565b915061175a565b60008167ffffffffffffffff8111156117c6577f4e487b7100000000000000000000000000000000000000000000000000000000600052604160045260246000fd5b6040519080825280601f01601f1916602001820160405280156117f85781602001600182028036833780820191505090505b5090505b600085146118ab576001826118119190612800565b9150600a856118209190612996565b603061182c9190612779565b60f81b818381518110611868577f4e487b7100000000000000000000000000000000000000000000000000000000600052603260045260246000fd5b60200101907effffffffffffffffffffffffffffffffffffffffffffffffffffffffffffff1916908160001a905350600a856118a491906127cf565b94506117fc565b8093505050505b919050565b505050565b505050565b6118cb8383611ab3565b6118d8600084848461191c565b611917576040517f08c379a000000000000000000000000000000000000000000000000000000000815260040161190e90612494565b60405180910390fd5b505050565b600061193d8473ffffffffffffffffffffffffffffffffffffffff16610ecc565b15611aa6578373ffffffffffffffffffffffffffffffffffffffff1663150b7a02611966610fc5565b8786866040518563ffffffff1660e01b8152600401611988949392919061240b565b602060405180830381600087803b1580156119a257600080fd5b505af19250505080156119d357506040513d601f19601f820116820180604052508101906119d09190612039565b60015b611a56573d8060008114611a03576040519150601f19603f3d011682016040523d82523d6000602084013e611a08565b606091505b50600081511415611a4e576040517f08c379a0000000000000000000000000000000000000000000000000000000008152600401611a4590612494565b60405180910390fd5b805181602001fd5b63150b7a0260e01b7bffffffffffffffffffffffffffffffffffffffffffffffffffffffff1916817bffffffffffffffffffffffffffffffffffffffffffffffffffffffff191614915050611aab565b600190505b949350505050565b600073ffffffffffffffffffffffffffffffffffffffff168273ffffffffffffffffffffffffffffffffffffffff161415611b23576040517f08c379a0000000000000000000000000000000000000000000000000000000008152600401611b1a906125d4565b60405180910390fd5b611b2c81610f59565b15611b6c576040517f08c379a0000000000000000000000000000000000000000000000000000000008152600401611b63906124f4565b60405180910390fd5b611b78600083836118b7565b6001600360008473ffffffffffffffffffffffffffffffffffffffff1673ffffffffffffffffffffffffffffffffffffffff1681526020019081526020016000206000828254611bc89190612779565b92505081905550816002600083815260200190815260200160002060006101000a81548173ffffffffffffffffffffffffffffffffffffffff021916908373ffffffffffffffffffffffffffffffffffffffff160217905550808273ffffffffffffffffffffffffffffffffffffffff16600073ffffffffffffffffffffffffffffffffffffffff167fddf252ad1be2c89b69c2b068fc378daa952ba7f163c4a11628f55a4df523b3ef60405160405180910390a4611c89600083836118bc565b5050565b828054611c99906128ea565b90600052602060002090601f016020900481019282611cbb5760008555611d02565b82601f10611cd457805160ff1916838001178555611d02565b82800160010185558215611d02579182015b82811115611d01578251825591602001919060010190611ce6565b5b509050611d0f9190611d13565b5090565b5b80821115611d2c576000816000905550600101611d14565b5090565b6000611d43611d3e846126d4565b6126af565b905082815260208101848484011115611d5b57600080fd5b611d668482856128a8565b509392505050565b6000611d81611d7c84612705565b6126af565b905082815260208101848484011115611d9957600080fd5b611da48482856128a8565b509392505050565b600081359050611dbb81612eec565b92915050565b600081359050611dd081612f03565b92915050565b600081359050611de581612f1a565b92915050565b600081519050611dfa81612f1a565b92915050565b600082601f830112611e1157600080fd5b8135611e21848260208601611d30565b91505092915050565b600082601f830112611e3b57600080fd5b8135611e4b848260208601611d6e565b91505092915050565b600081359050611e6381612f31565b92915050565b600060208284031215611e7b57600080fd5b6000611e8984828501611dac565b91505092915050565b60008060408385031215611ea557600080fd5b6000611eb385828601611dac565b9250506020611ec485828601611dac565b9150509250929050565b600080600060608486031215611ee357600080fd5b6000611ef186828701611dac565b9350506020611f0286828701611dac565b9250506040611f1386828701611e54565b9150509250925092565b60008060008060808587031215611f3357600080fd5b6000611f4187828801611dac565b9450506020611f5287828801611dac565b9350506040611f6387828801611e54565b925050606085013567ffffffffffffffff811115611f8057600080fd5b611f8c87828801611e00565b91505092959194509250565b60008060408385031215611fab57600080fd5b6000611fb985828601611dac565b9250506020611fca85828601611dc1565b9150509250929050565b60008060408385031215611fe757600080fd5b6000611ff585828601611dac565b925050602061200685828601611e54565b9150509250929050565b60006020828403121561202257600080fd5b600061203084828501611dd6565b91505092915050565b60006020828403121561204b57600080fd5b600061205984828501611deb565b91505092915050565b60006020828403121561207457600080fd5b600082013567ffffffffffffffff81111561208e57600080fd5b61209a84828501611e2a565b91505092915050565b6000602082840312156120b557600080fd5b60006120c384828501611e54565b91505092915050565b6120d581612834565b82525050565b6120e481612846565b82525050565b60006120f582612736565b6120ff818561274c565b935061210f8185602086016128b7565b61211881612a83565b840191505092915050565b600061212e82612741565b612138818561275d565b93506121488185602086016128b7565b61215181612a83565b840191505092915050565b600061216782612741565b612171818561276e565b93506121818185602086016128b7565b80840191505092915050565b600061219a60328361275d565b91506121a582612a94565b604082019050919050565b60006121bd60268361275d565b91506121c882612ae3565b604082019050919050565b60006121e060258361275d565b91506121eb82612b32565b604082019050919050565b6000612203601c8361275d565b915061220e82612b81565b602082019050919050565b600061222660248361275d565b915061223182612baa565b604082019050919050565b600061224960198361275d565b915061225482612bf9565b602082019050919050565b600061226c602c8361275d565b915061227782612c22565b604082019050919050565b600061228f60388361275d565b915061229a82612c71565b604082019050919050565b60006122b2602a8361275d565b91506122bd82612cc0565b604082019050919050565b60006122d560298361275d565b91506122e082612d0f565b604082019050919050565b60006122f860208361275d565b915061230382612d5e565b602082019050919050565b600061231b602c8361275d565b915061232682612d87565b604082019050919050565b600061233e60208361275d565b915061234982612dd6565b602082019050919050565b6000612361602f8361275d565b915061236c82612dff565b604082019050919050565b600061238460218361275d565b915061238f82612e4e565b604082019050919050565b60006123a760318361275d565b91506123b282612e9d565b604082019050919050565b6123c68161289e565b82525050565b60006123d8828561215c565b91506123e4828461215c565b91508190509392505050565b600060208201905061240560008301846120cc565b92915050565b600060808201905061242060008301876120cc565b61242d60208301866120cc565b61243a60408301856123bd565b818103606083015261244c81846120ea565b905095945050505050565b600060208201905061246c60008301846120db565b92915050565b6000602082019050818103600083015261248c8184612123565b905092915050565b600060208201905081810360008301526124ad8161218d565b9050919050565b600060208201905081810360008301526124cd816121b0565b9050919050565b600060208201905081810360008301526124ed816121d3565b9050919050565b6000602082019050818103600083015261250d816121f6565b9050919050565b6000602082019050818103600083015261252d81612219565b9050919050565b6000602082019050818103600083015261254d8161223c565b9050919050565b6000602082019050818103600083015261256d8161225f565b9050919050565b6000602082019050818103600083015261258d81612282565b9050919050565b600060208201905081810360008301526125ad816122a5565b9050919050565b600060208201905081810360008301526125cd816122c8565b9050919050565b600060208201905081810360008301526125ed816122eb565b9050919050565b6000602082019050818103600083015261260d8161230e565b9050919050565b6000602082019050818103600083015261262d81612331565b9050919050565b6000602082019050818103600083015261264d81612354565b9050919050565b6000602082019050818103600083015261266d81612377565b9050919050565b6000602082019050818103600083015261268d8161239a565b9050919050565b60006020820190506126a960008301846123bd565b92915050565b60006126b96126ca565b90506126c5828261291c565b919050565b6000604051905090565b600067ffffffffffffffff8211156126ef576126ee612a54565b5b6126f882612a83565b9050602081019050919050565b600067ffffffffffffffff8211156127205761271f612a54565b5b61272982612a83565b9050602081019050919050565b600081519050919050565b600081519050919050565b600082825260208201905092915050565b600082825260208201905092915050565b600081905092915050565b60006127848261289e565b915061278f8361289e565b9250827fffffffffffffffffffffffffffffffffffffffffffffffffffffffffffffffff038211156127c4576127c36129c7565b5b828201905092915050565b60006127da8261289e565b91506127e58361289e565b9250826127f5576127f46129f6565b5b828204905092915050565b600061280b8261289e565b91506128168361289e565b925082821015612829576128286129c7565b5b828203905092915050565b600061283f8261287e565b9050919050565b60008115159050919050565b60007fffffffff0000000000000000000000000000000000000000000000000000000082169050919050565b600073ffffffffffffffffffffffffffffffffffffffff82169050919050565b6000819050919050565b82818337600083830152505050565b60005b838110156128d55780820151818401526020810190506128ba565b838111156128e4576000848401525b50505050565b6000600282049050600182168061290257607f821691505b6020821081141561291657612915612a25565b5b50919050565b61292582612a83565b810181811067ffffffffffffffff8211171561294457612943612a54565b5b80604052505050565b60006129588261289e565b91507fffffffffffffffffffffffffffffffffffffffffffffffffffffffffffffffff82141561298b5761298a6129c7565b5b600182019050919050565b60006129a18261289e565b91506129ac8361289e565b9250826129bc576129bb6129f6565b5b828206905092915050565b7f4e487b7100000000000000000000000000000000000000000000000000000000600052601160045260246000fd5b7f4e487b7100000000000000000000000000000000000000000000000000000000600052601260045260246000fd5b7f4e487b7100000000000000000000000000000000000000000000000000000000600052602260045260246000fd5b7f4e487b7100000000000000000000000000000000000000000000000000000000600052604160045260246000fd5b6000601f19601f8301169050919050565b7f4552433732313a207472616e7366657220746f206e6f6e20455243373231526560008201527f63656976657220696d706c656d656e7465720000000000000000000000000000602082015250565b7f4f776e61626c653a206e6577206f776e657220697320746865207a65726f206160008201527f6464726573730000000000000000000000000000000000000000000000000000602082015250565b7f4552433732313a207472616e736665722066726f6d20696e636f72726563742060008201527f6f776e6572000000000000000000000000000000000000000000000000000000602082015250565b7f4552433732313a20746f6b656e20616c7265616479206d696e74656400000000600082015250565b7f4552433732313a207472616e7366657220746f20746865207a65726f2061646460008201527f7265737300000000000000000000000000000000000000000000000000000000602082015250565b7f4552433732313a20617070726f766520746f2063616c6c657200000000000000600082015250565b7f4552433732313a206f70657261746f7220717565727920666f72206e6f6e657860008201527f697374656e7420746f6b656e0000000000000000000000000000000000000000602082015250565b7f4552433732313a20617070726f76652063616c6c6572206973206e6f74206f7760008201527f6e6572206e6f7220617070726f76656420666f7220616c6c0000000000000000602082015250565b7f4552433732313a2062616c616e636520717565727920666f7220746865207a6560008201527f726f206164647265737300000000000000000000000000000000000000000000602082015250565b7f4552433732313a206f776e657220717565727920666f72206e6f6e657869737460008201527f656e7420746f6b656e0000000000000000000000000000000000000000000000602082015250565b7f4552433732313a206d696e7420746f20746865207a65726f2061646472657373600082015250565b7f4552433732313a20617070726f76656420717565727920666f72206e6f6e657860008201527f697374656e7420746f6b656e0000000000000000000000000000000000000000602082015250565b7f4f776e61626c653a2063616c6c6572206973206e6f7420746865206f776e6572600082015250565b7f4552433732314d657461646174613a2055524920717565727920666f72206e6f60008201527f6e6578697374656e7420746f6b656e0000000000000000000000000000000000602082015250565b7f4552433732313a20617070726f76616c20746f2063757272656e74206f776e6560008201527f7200000000000000000000000000000000000000000000000000000000000000602082015250565b7f4552433732313a207472616e736665722063616c6c6572206973206e6f74206f60008201527f776e6572206e6f7220617070726f766564000000000000000000000000000000602082015250565b612ef581612834565b8114612f0057600080fd5b50565b612f0c81612846565b8114612f1757600080fd5b50565b612f2381612852565b8114612f2e57600080fd5b50565b612f3a8161289e565b8114612f4557600080fd5b5056fea2646970667358221220ac55a2022ad37953853ce432b861670291bc0962986f6d484944e9ea0b4454b564736f6c63430008040033",
  "linkReferences": {},
  "deployedLinkReferences": {}
}